:1000000016EF00F00000000000EF00F0000000001C
:0A0010000000000000000000F3D71C
:10001C000900F5CFE6FF0006FBE10106F9E112004D
:10002C003F0E156E060E166E5B0E176E4F0E186E8B
:10003C00660E196E6D0E1A6E7D0E1B6E070E1C6E03
:10004C007F0E1D6E6F0E1E6E956A95CF94FF94CF2A
:10005C0093FF826A216A226A800E2218006E800E3B
:10006C00005C02E10A0E215C3FE2150E2124E96ED0
:10007C00000E2220EA6EEECF83FF000E221802E162
:10008C00010E211803E1010E826E07D082CF00F021
:10009C00003600900050010F826E1F6A206A800E9D
:1000AC002018006E800E005C02E10A0E1F5C19E243
:1000BC00150E1F24E96E000E2020EA6EEECF81FF94
:1000CC00030E0B6E8A0E0C6E550E0D6E0D2EFED79A
:1000DC000C2EFCD70B2EFAD7000000001F4A202A4A
:0A00EC00DED7214A222AB8D7FFD739
:020000040030CA
:0D000100220F0EFFFF81FF0FC00FE00F4028
:00000001FF
