:1000000053EF00F00000000000EF00F000000000DF
:0A0010000000000000000000F3D71C
:10001C0017C081FF829082820D0E0C6EFB0E0D6E4E
:10002C000D2EFED70C2EFCD7000000008292120081
:10003C0015C081FF828082820D0E0C6EFB0E0D6E40
:10004C000D2EFED70C2EFCD7000000008292020E63
:10005C000B6E040E0C6EBA0E0D6E0D2EFED70C2E02
:0A006C00FCD70B2EFAD7000012009B
:100076000900F5CFE6FF0006FBE10106F9E11200F3
:10008600380E176EC8DF0E0E176EC5DF060E176E1A
:10009600C2DF010E176EBFDF800E176EBCDF1200C7
:1000A600946A94CF93FF948EEBDF410E156E000E8B
:1000B600166EC1DF020E0B6E040E0C6EBA0E0D6EBE
:1000C6000D2EFED70C2EFCD70B2EFAD70000900E65
:1000D600AB6E0F0EAF6E020E0B6E040E0C6EBA0EEA
:1000E6000D6E0D2EFED70C2EFCD70B2EFAD7000068
:1000F6009EBA01D0FDD7AECF81FF81CF15F0000E9D
:10010600166E99DF020E0B6E040E0C6EBA0E0D6E95
:100116000D2EFED70C2EFCD70B2EFAD70000E8D7F3
:02012600FFD701
:020000040030CA
:0D000100220F0EFFFF81FF0FC00FE00F4028
:00000001FF
