:1000000023EF00F00000000000EF00F0000000000F
:0A0010000000000000000000F3D71C
:0E001C000F0EAF6E220EAC6E800EAB6E120099
:0C002A009EB801D0FDD716C0ADFF12003B
:100036000900F5CFE6FF0006FBE10106F9E1120033
:10004600410E156EE8DF15C016F0ECDF020E0B6EE2
:10005600040E0C6EBA0E0D6E0D2EFED70C2EFCD7AE
:100066000B2EFAD70000152A15505A0802E2410E47
:06007600156EE9D7FFD76B
:020000040030CA
:0D000100220F0EFFFF81FF0FC00FE00F4028
:00000001FF
