:1000000016EF00F00000000000EF00F0000000001C
:0A0010000000000000000000F3D71C
:10001C000900F5CFE6FF0006FBE10106F9E112004D
:10002C003F0E156E060E166E5B0E176E4F0E186E8B
:10003C00660E196E6D0E1A6E7D0E1B6E070E1C6E03
:10004C007F0E1D6E6F0E1E6E946A94CF93FF1F6A07
:10005C00206A800E006E800E2018005C02E11F509A
:10006C00090847E3236A246A800E006E800E241868
:10007C00005C02E12350090839E3216A226A800EF0
:10008C002218006E800E005C02E1640E215C2BE2F3
:10009C00020E826E150E1F24E96E000E2020EA6EF1
:1000AC00EECF81FF0D0E0C6EFB0E0D6E0D2EFED7DE
:1000BC000C2EFCD700000000010E826E150E2324BE
:1000CC00E96E000E2420EA6EEECF81FF0D0E0C6E51
:1000DC00FB0E0D6E0D2EFED70C2EFCD70000000073
:1000EC00214A222ACCD7234A242ABED71F4A202AA7
:0600FC00B0D7ADD7FFD71D
:020000040030CA
:0D000100220F0EFFFF81FF0FC00FE00F4028
:00000001FF
