:1000000034EF00F00000000000EF00F000000000FE
:0A0010000000000000000000F3D71C
:10001C0015C081FF828082820B0E0C6E620E0D6EFB
:0E002C000D2EFED70C2EFCD700008292120083
:10003A000900F5CFE6FF0006FBE10106F9E112002F
:10004A0015C081FF829082820B0E0C6E620E0D6EBD
:0E005A000D2EFED70C2EFCD700008292120055
:10006800946A94CF93FF380E156EEBDF0E0E156E63
:10007800E8DF060E156EE5DF010E156EE2DF800E75
:10008800156EDFDF440E156EC5DF550E156EC2DF27
:04009800E7D7FFD7D0
:020000040030CA
:0D000100220F0EFFFF81FF0FC00FE00F4028
:00000001FF
