:1000000065EF00F00000000000EF00F000000000CD
:0A0010000000000000000000F3D71C
:10001C0026C082FF819081820D0E0C6EFB0E0D6E40
:10002C000D2EFED70C2EFCD7000000008192120082
:10003C0026C082FF818081820D0E0C6EFB0E0D6E30
:10004C000D2EFED70C2EFCD7000000008192020E64
:10005C000B6E040E0C6EBA0E0D6E0D2EFED70C2E02
:0A006C00FCD70B2EFAD7000012009B
:1000760024C0E9FF25C0EAFFEE50000A0AE024C0CA
:10008600E9FF25C0EAFFEECF26F0D5DF244A252A70
:04009600EFD712008E
:10009A00380E266EBEDF0E0E266EBBDF060E266EED
:1000AA00B8DF010E266EB5DF800E266EB2DF1200B3
:1000BA000900F5CFE6FF0006FBE10106F9E11200AF
:1000CA00430E1E6E6F0E1F6E6F0E206E6C0E216E2B
:1000DA00210E226E236A946A94CF93FF966A96CF72
:1000EA0094FFD6DF1E0E246E000E256EBFDFD0DF12
:1000FA00410E156E770E166E650E176E730E186E1C
:10010A006F0E196E6D0E1A6E650E1B6E210E1C6E29
:10011A001D6A150E246E000E256EA8DFB9DF530E78
:10012A00266E87DF410E266E84DF520E266E81DF31
:10013A00540E266E7EDF480E266E7BDF410E266E3B
:0C014A0078DF4B0E266E75DFC9D7FFD79B
:09015600417765736F6D652100AE
:06015F00436F6F6C2100EC
:020000040030CA
:0D000100220F0EFFFF81FF0FC00FE00F4028
:00000001FF
