:1000000022EF00F00000000000EF00F00000000010
:0A0010000000000000000000F3D71C
:10001C000900F5CFE6FF0006FBE10106F9E112004D
:10002C00080ED56E350ED76ED66AD58EF2B401D0C9
:08003C00FDD7D59EF2941200DD
:10004400936A550E816EF0DF030E0B6E8A0E0C6EF2
:10005400550E0D6E0D2EFED70C2EFCD70B2EFAD797
:1000640000000000AA0E816EDFDF030E0B6E8A0E05
:100074000C6E550E0D6E0D2EFED70C2EFCD70B2ECE
:0A008400FAD700000000DDD7FFD717
:020000040030CA
:0E000000000C1F1EFF8381FF0FC00FE00F409A
:00000001FF
